:020000040020DA
:10200000F04800208D222000AFE52000ADE5200043
:10201000ADE52000ADE52000ADE5200000000000AA
:1020200000000000000000000000000043FF20004E
:10203000ADE520000000000061FF2000B5ED2000AC
:10204000C7ED2000CDED2000D3ED2000D9ED20001C
:1020500000000000BBED2000C1ED2000ADE5200038
:10206000ADE52000000000000000000000000000BE
:102070000000000000000000ADE5200000000000AE
:102080000000000000000000ADE52000ADE52000EC
:10209000ADE52000ADE52000ADE52000ADE5200078
:1020A000ADE52000ADE52000ADE52000ADE5200068
:1020B000ADE52000ADE52000ADE52000ADE5200058
:1020C000ADE52000ADE52000ADE52000ADE5200048
:1020D000ADE520000000000000000000000000004E
:1020E00000000000000000000000000000000000F0
:1020F0000000000000000000E9662000F9662000F2
:1021000000000000000000000000000000000000CF
:1021100000000000000000000000000000000000BF
:1021200000000000000000000000000000000000AF
:10213000000000000000000000000000000000009F
:10214000000000000000000000000000000000008F
:10215000000000000000000000000000000000007F
:10216000000000000000000000000000000000006F
:10217000000000000000000000000000000000005F
:10218000000000000000000000000000000000004F
:10219000000000000000000000000000000000003F
:1021A000000000000000000000000000000000002F
:1021B000000000000000000000000000000000001F
:1021C000000000000000000000000000000000000F
:1021D00000000000000000000000000000000000FF
:1021E00000000000000000000000000000000000EF
:1021F00000000000000000000000000000000000DF
:1022000000000000000000000000000000000000CE
:1022100000000000000000000000000000000000BE
:1022200000000000000000000000000000000000AE
:10223000000000000000000000000000000000009E
:10224000000000000000000000000000000000008E
:10225000000000000000000000000000000000007E
:10226000000000000000000000000000000000006E
:10227000ADE52000CD652000F1652000655C200003
:102280005968200061572000ADE5200008B5094BD2
:10229000FF221A600848094A4824E3690849121ACB
:1022A00098470848084AA3690021121A984702F083
:1022B00069FFFEE7B4200D40400000209902002095
:1022C000C02D2100A0020020EA38002010B50446ED
:1022D00020B9054840F2A74105F0BCFAA06ABDE864
:1022E0001040503002F0F0BCAB1C21002DE9F04F43
:1022F00091B0DDF874A00693DAF8003083460C2B19
:102300000D461C9C04D819466E4804F06DFBD5E0C0
:10231000FE236370FD232270A37004F1030904F10E
:102320000B06B9B18B881A0AE27023718B68CA68F0
:10233000A372A271110A1A0EE2711A0C22721A0A01
:1023400061716272D5E90223013243F10003C5E9EC
:10235000022303E0484608220CF0ACF80023337057
:102360007370B71C0DB16A88EAB94FF00008454692
:102370001A9E1B9B984500F09880326805F10D036A
:10238000DAF8001013449942C0F09880069B384652
:1023900053F828100BF0B4FF56F8043B08F101087D
:1023A0001F441D44E5E7D9F800204FF008083A60C3
:1023B000D9F804207A6006F10A0294461A9E059222
:1023C0001B9A934216D0326808F10D01DAF800002A
:1023D0001144884272D30699604651F8231007933E
:1023E0000BF08EFF844656F8042B079B94449044D0
:1023F0000133E5E70CA8002110220CF05BF89BF8F4
:10240000003013B905F1300301E005F13403186819
:1024100079680C9038680DAB002603C30CAA102312
:1024200000960620284902F053FE9BF8003013B9AD
:1024300005F1100201E005F12002062023491023D6
:10244000009602F045FE08AA1346D9F80000D9F814
:10245000041003C32188A378ADF82810A8F108015F
:102460008DF82A308BB2180A8DF82C309BF800308A
:102470008DF82B000BB9103500E02035102305989E
:1024800001930D2302920393009502460CAB01F0D9
:10249000BDFE002813DB00F1080500230093062091
:1024A0000B493A462B4602F013FEC5F3072325736A
:1024B0000D35E3720020CAF8005000E0054811B065
:1024C000BDE8F08FCC1C2100F21C2100F91C21007A
:1024D000FE1C2100B0FDFFFF2DE9F04FCBB00593AE
:1024E00009AEFA2333609DF85081579B569D0DF13C
:1024F0002C0A049101930746934601F11C000095B4
:102500001146CDF808A003964246559BFFF7EEFE14
:102510000028C0F29E800123009306204E495246B7
:102520000D23043D002402F0D3FDA146AC46579B89
:10253000994516D001230093559B062053F8292076
:102540005CF8043F4549CDF818C0CDF81CC002F036
:10255000BFFDDDF818C009F10109DCF800301C44AA
:10256000E5E7B8F1160F05D1559B1B681B78032BC7
:1025700003D15DE0B8F1140F5AD1204601F074FF89
:102580008146002851D00AA80CF057FA0A9B4FF454
:10259000007203F50073C9F80820049AC9F80430E2
:1025A000002389F81330C9F80C20BBF1000F02D0CA
:1025B000BBF8042000E01A4689F81280A9F8102020
:1025C000C9F814304FF00008579B984513D0D9F83C
:1025D0001400559B55F8042F183053F82810484420
:1025E0000BF08EFED9F814202B6808F10108134473
:1025F000C9F81430E8E7F86B494601F009FF30B933
:1026000017480CF00DFC484601F044FF10E0154D52
:10261000154BD5F8008007F11800D9F808102B6089
:102620000CF04AFCC5F8008002E010480CF0F8FB02
:102630007B6C63B11D6855B13846059952463368C5
:10264000A847002805DD3368E41A204401E04FF074
:10265000FF304BB0BDE8F08F071D2100131D210096
:10266000241D2100B40F0020400000204B1D21003C
:10267000012A2DE9F04106461F4602D80020BDE898
:10268000F08108784B78023A43EA00239A4218D343
:10269000881C002AF2D0032A13D9141F8578C27827
:1026A0000178437842EA0525AC4243EA012100F172
:1026B000040806D3094804F097F908EB0500621BEB
:1026C000E7E747B13078064A064B0C2814BF184696
:1026D0001046BDE8F0810348BDE8F081621D21008D
:1026E0009CFEFFFFD8FDFFFF73B50D46144606465E
:1026F000002300932A4606200649234602F0E8FC00
:10270000294622463068503002B0BDE8704002F0E1
:10271000C5BB00BF811D21002DE9F04F8046506AE6
:1027200095B00D461446994608B101F067FD01F0D9
:102730004DFD6062002800F0D680236A9B8801333B
:102740008380666A002E00F0CE804CF2A803B5F8B4
:10275000BA209A4240F0C480D8F84430ABB1D3F8E4
:102760000CC0BCF1000F10D0B5F8BE3008AC20276B
:1027700000934946019402974046022205F1C003A6
:10278000E047B0F1000907DA01E04FF0FF3958489F
:102790000CF046FB4846A7E006F1100849464246C1
:1027A000282320460CF01AF98346012300930620C3
:1027B000504922464B4602F08BFC204600213A4607
:1027C0000BF078FEBBF1000F01DA4B4889E04FF0C7
:1027D00000093B46062049492A46CDF8009002F000
:1027E00077FC05F120031A46062045490793CDF8EA
:1027F00000903B4602F06CFC0620424942465B4694
:10280000CDF8009002F064FC079B4FF0300A8DE891
:10281000A0000293039759463B4A0D230494CDF838
:1028200014A040460CF0B7F806203849224653461B
:10283000CDF8009002F04CFC079B03978DE88800D0
:1028400028230593324A0295CDF810802046514640
:102850000D230CF0A0F82A4614AF234603CBBB424D
:10286000106051601C4602F10802F6D100240620D7
:10287000284942462346009402F02AFC06202649B5
:1028800042462346009402F023FC06202349424698
:102890001023009402F01CFC0620214906F12002BE
:1028A0001023009402F014FC06201E4906F13002A9
:1028B0000423009402F00CFC062006F134020423E9
:1028C0000094194902F004FCB5F8BA300022738074
:1028D00095F8B830204633700023C6E9022303E0A0
:1028E00012480CF09DFA124815B0BDE8F08F00BFF9
:1028F0008E1D2100AF1D2100B31D2100E31D21000D
:10290000F11D2100FF1D2100931C2100031E210049
:10291000D7272100111E2100251E2100391E21006C
:102920004C1E21005F1E21006B1E2100771E21001E
:10293000B0FDFFFF2DE9F047C8B0CA68FA2305AE25
:102940003360156A4B6901F118080DF11C09C9F8CB
:10295000003007460C46CDF818800B8A15B1A988BF
:10296000994205D0556A1DB1AA889A4218BF002520
:1029700008A80CF062F8E37CA2680133DBB2E374D0
:1029800002FA03F3089A214613446360F86B01F0DE
:102990003FFDE068CDF800904FF0010A0DF12409E9
:1029A0002946A27CCDF804A0CDF8089003961C30EF
:1029B00006ABFFF79BFC011E03DA104804F014F885
:1029C00019E006200E494A460D23CDF800A002F07A
:1029D0007FFB6369CDF800A006200A49424602F059
:1029E00077FB7B6C3BB11D682DB1E1683846043143
:1029F0004A463368A84748B0BDE8F0879B1E2100CF
:102A0000BF1E2100D11E21002DE9F0470F46A0B0C6
:102A1000924698468D6A064638B1446C44B1E468E3
:102A200034B101244FF0020903E00446814600E07E
:102A3000A146FE2309F102098DF81430B8F1200FE8
:102A40004FF0FD035FFA89F98DF8153004D933484A
:102A50000CF0E6F932485DE0B8F1000F0FD104A8A0
:102A60000BF0EBFF049B281DD90FDA092970D90D53
:102A7000DB0B6970AB70EA701C210BF09BFD0DF154
:102A8000160305F1200255F8041B954243F8041B78
:102A9000F9D100238DF836308DF83780B8F1000F6A
:102AA00008D042460EA851460BF02AFC0EAB03EBB1
:102AB000080200E00EAA0023A9F10209137082F8AF
:102AC00001900CB9023204E0C0239370A823D370A4
:102AD0000432012313700023537005AD0232541BDE
:102AE0006A2C04D90F4840F6223104F0B3FEB8F145
:102AF000000F02D03846FFF7E9FB18F1000318BFBA
:102B00000123029300950194304639463A1D012372
:102B10000BF0B5FD20B0BDE8F08700BFE81E210036
:102B2000D8FDFFFFAB1C21002DE9F047804617467A
:102B30001C46C4B01AA80C22894641464C9E01F09E
:102B4000DDFB1AA8B91C3A7801F0C4FB94F82E50AA
:102B500005F1230A2F35B54201D94D4D94E004F11A
:102B60000C011AA8524601F0B5FB635D534403F112
:102B70000D01B142F1D8A27A607A120242EA004213
:102B8000E07A21440243013A1AA8D21A01F0A2FBCA
:102B90001AA80AA901F00CFC0F28824608D80DF1EA
:102BA000170318180021CAF110020BF083FC01E092
:102BB0004FF0100A0AA952460DF1170000250BF03C
:102BC0009FFB0095062033490DF11702534602F092
:102BD0007FFABAF1100F04D02F4840F28F6104F051
:102BE00039FE2E2E4CD9227B637B43EA02234FF61B
:102BF000FD62934244D194F82E202E3E511C8E4209
:102C00003ED32F32A318A45C761A621C964237D3A7
:102C10005E1C00230093062020493246234602F022
:102C200057FA102C08D130460DF1170122460BF04F
:102C300035FB054608B927E03CB100230093062088
:102C400017493246234602F043FAFE238DF814302A
:102C5000FD238DF8153010238DF8163005AB009349
:102C60001323019300230293404649463A46032327
:102C70000BF005FD051E07DA0A480CF0D1F803E059
:102C80000948002103F0B0FE284644B0BDE8F087B3
:102C9000D8FDFFFFFF1E2100AB1C21000D1F2100EE
:102CA000211F2100301F2100501F21002DE9F0417C
:102CB0000C4690460746896AB4B00AAD68221AA845
:102CC00050310BF01DFB28461AA902F03BF9134BBB
:102CD00007AE009309230193029520230C2503934B
:102CE000424604960595A06A302106230BF053FE58
:102CF0000023009332462B460620094902F0E8F9EA
:102D0000012302930096019538462146221D142383
:102D10000BF0B5FC34B0BDE8F08100BFA11C210070
:102D20007A1F21002DE9F04FB7B0074691469A4629
:102D30009DF80081419D429E0C4611B13C300BF044
:102D400073FC2978142900F2CE84DFE811F0A20484
:102D5000BB022D001500CC04CC04CC04CC04CC0464
:102D6000CC04CC04CC0490006B01CE00CC049302C4
:102D7000CC04CC04CC04FA01B8F1080F40F0C084B4
:102D80000E2E40F2C5843846214605F10F02AB7B7A
:102D9000FFF73AFEB0F1000880F2A984C6480CF0B3
:102DA0003FF8C14600F0B6BCB8F1080F40F0A88467
:102DB000172ED4F828A040F2AF84324604F1280040
:102DC0002946FFF791FC2A7B6B7B43EA02234FF6EF
:102DD000FD62934205D0B9480CF022F8DFF8249345
:102DE0003FE005F10E080AF1200305F12E0258F824
:102DF000041B904543F8041BF9D195F82E50A6F119
:102E00002E030135AB42C0F0878408EB050918F8A2
:102E1000051099F80130384643EA0121AAF8BA10A2
:102E2000313E0BF0E5FB38B918F8051099F8012090
:102E3000A34803F0D9FD06E099F8023033B1A14868
:102E4000194603F0D1FDDFF8C0920AE004F11D003D
:102E500009F10301721BFFF70BFCB0F1000803DA64
:102E6000C146994800F06BBC0B2300F03ABC4CF211
:102E7000A803A76AB7F8BA90994540F05784B8F10B
:102E80000B0F40F03D8404F1280029463246FFF73D
:102E90002BFCB7F8BA304B4504D08C4840F66E4155
:102EA00004F0D8FC0D2E01D8894809E02A7B6B7B01
:102EB0000E3E43EA0222B24205F10E0105D08548DA
:102EC0000BF0AEFF844C00F02BBC202A05D98348C0
:102ED0000BF0A6FF824C00F023BCA7F8BE2007F140
:102EE000C0000BF00DFA00F021BCB8F10B0F40F060
:102EF0000784204650F8283F324629460793FFF7BB
:102F0000F3FB4CF2A803D4F828B0BBF8BA209A42DD
:102F10004CD17B6CD3B1D3F80C90B9F1000F15D024
:102F2000BBF8BE30261D00930BF1C00820230DF125
:102F30007205029301953846314601224346C8473F
:102F4000B0F100090DF1700A06DA01E04FF0FF3927
:102F500064480BF065FF3BE009F10203422B07D9FF
:102F60000BF1BE00002122220BF0A4FA5E481EE005
:102F700029464A46ABF8BE9040460BF0C1F9002303
:102F8000284641464A468DF870308DF871900BF016
:102F9000B7F9BBF8BE301D44CAEB0505422D0BD96D
:102FA0004A4840F6062104F055FC05E04F480BF076
:102FB00037FFDFF82C9131E001230293CDF800A018
:102FC000019538462146324610230BF058FB8146C6
:102FD000B9F1000F22DB384607992246231DFFF77F
:102FE0009BFB0028C0F2A483012236AB03F8682DB6
:102FF00038460092214614220BF005FBB0F100097F
:103000000CDB226A636A3846626223622146384AD0
:10301000FFF74CFEB0F1000802DAC14635488EE3F6
:1030200005235EE3B8F10B0F40F06A8304F128003A
:1030300029463246FFF758FB244840F6974104F0F2
:1030400009FC102E01D8224826E02A7B05F10D0745
:10305000531CB34203D80C351346002009E0264820
:103060001AE015F8011F402902D1002808BF4020AE
:10307000013B002BF5D1402807EB020101D01F488E
:1030800052E0B85C4A7842EA0020421CB24202D8C0
:103090000A461D460AE01A480BF0C2FEDFF83890D7
:1030A00048E39778D678042F30D00232C2EB00087C
:1030B00011EB0808F5D132E08E1F2100A61F210078
:1030C000BB1F2100DD1F210004202100AB1C2100BB
:1030D0002920210057202100CEFDFFFF872021005D
:1030E000B0FDFFFFB1202100CB202100E82021000E
:1030F000D0272100FD202100262121004921210087
:103100007F212100BAFDFFFFB9FDFFFF002BCCD1CD
:10311000032ECAD1002DC8D13B463546C5E7042B46
:1031200001D1032D05D0C6480BF07AFEDFF8489395
:1031300000E3A26A92F8BC3043F0010382F8BC308D
:10314000D6E2B8F1060F40F0DB82172E03D8DFF885
:103150002893BC48F3E2A36A0DF1700903F1500B08
:103160005946682248460BF0CBF80CAB1846594636
:10317000079301F0E7FEA06A4946682250300BF041
:10318000BFF8079BB04A94F81CE000920293092212
:1031900020234FF00C0B01920393AC4AAC4BCDF8BB
:1031A0001090CDF814B0BEF1000F18BF1A463021B0
:1031B0004346A06A0BF0EFFB05EB0B0C00236246C5
:1031C00000934046A3495B46CDF81CC001F080FF48
:1031D00000230093A0494A465B46404601F078FF31
:1031E000DDF81CC00DF16F0205F1180101238C45BB
:1031F00009D01CF801EB12F8010F864514BF00231B
:1032000003F00103F3E7002BA1D0BAF1010F24D1A1
:1032100004F1280029463246FFF766FA4B46CDF8FE
:1032200000A03846214614228DF870A00BF0EBF96F
:10323000B0F1000901DA89480CE0226A636A384675
:10324000626223622146814AFFF730FDB0F1000936
:1032500005DA83480BF0E4FD80E24FF00009A06A34
:1032600000F0A4FF0023A3627E480BF0D9FD0C23DD
:10327000637773E2B8F1030F40F042824CF2A80387
:10328000A06AB0F8BA209A4240F05D820D2E40F25A
:1032900053826B7B2A7B05F10E0143EA022202F185
:1032A0000E03B34240F04882202A05D96E480BF045
:1032B000B7FDDFF8C89141E2A0F8BE20C0300BF0A6
:1032C0001FF840E214B1B8F10C0F01E0B8F1010FA2
:1032D00040F016820096384621464A462B46FFF7B4
:1032E00023FCB0F1000804DA4146604803F07CFB9F
:1032F0000CE240F0FC818CB9484601F005F9044627
:1033000008B95B4889E101230377036A00210120A2
:10331000C3E90201786921460BF047FED4F82890F2
:10332000B9F1000F1AD100F029FFA062002800F0C7
:10333000768100F140034364A36AC3F84090A36A16
:10334000586C0BF00BFE29796B79A26A43EA0123D2
:10335000A2F84A30A36A0122A3F848202046FEF7CB
:10336000B5FFD4F828B0D4F820A0BBF1000F04D1E9
:10337000404840F2EA3104F06DFA2E2E04D83D4860
:1033800040F2EB3104F066FA5A4605F10E0005F101
:103390002E0150F804EB884242F804EBF9D195F87D
:1033A0002E10A6F12E0201318A42C0F0A580521AD9
:1033B00000EB010E415C01318A42C0F09D800EEBB2
:1033C0000109531A1EF8011099F80120089342EAE6
:1033D000012308999A1C91420BD2BAF1000F00F018
:1033E0008B80BAF80220002A00F08680ABF8BA2061
:1033F00056E0079309F102094FF0000C079A002AE2
:103400003ED099F8001099F80120384642EA01228E
:1034100011460B93CDF828C009920BF0E9F8079BF1
:1034200009F10209023B0793099ADDF828C00B9BBA
:103430000028E3D0ABF8BA204FF0010CDEE700BF64
:10344000B1212100E2212100A11C21008C1C2100BE
:10345000D0272100DC212100DF21210003222100CF
:103460001B2221003A2221004D222100722221003C
:1034700095222100AB1C2100D8FDFFFFB0FDFFFF0E
:10348000BCF1000F05D1ABF8BAC0B6480BF0C8FCD0
:1034900032E0089A023AD21A0AD1BAF1000F04D0E7
:1034A0009AF800308BF8B83031E08BF8B8A02EE0F5
:1034B00099F80000431C9A421ED309F10101994476
:1034C000079B49458E4615D053B1121A013A04F1B3
:1034D0001D000123FFF7CCF8B0F1000917DA14E062
:1034E0009EF800E00131BEF1000FEAD18BF8B83050
:1034F0000123E6E7002BE8D194F81D909A4A9B4BF4
:10350000B9F10C0F0CBF994691469948A2E629469D
:10351000324604F12800FFF7E7F80CADFE23A66A57
:1035200028468DF87030FD238DF871300BF085FA48
:103530000C9B06F12400D90FDA0986F82010D90D6A
:10354000DB0B86F8211086F8223086F823201C2118
:103550000BF030F806F120030DF1720203F12001A7
:1035600053F8040B8B4242F8040BF9D100228DF87A
:103570009220B6F8BA304BB1190A8DF893108DF835
:1035800094308DF895200DF1960901E00DF1930925
:103590000DF1700ACAEB0909B9F1400F04D9754859
:1035A00040F2AB7104F056F90123261DCDF80490CA
:1035B0000293CDF800A038462146324602230BF094
:1035C0005EF8B0F10009C0F2C980A36AB3F8BA206E
:1035D0004CF2A8039A424CD17B6C1BB3D3F80CC0BD
:1035E000BCF1000F1ED04FF0000B20230293CDF84A
:1035F00000B00195384631465A465B46E047B0F187
:103600000009C0F2AB8034D0B9F1200F0DDD59486C
:1036100040F6840104F01EF957480BF001FCDFF876
:1036200074919BE04FF0FF3998E029464A460DF12E
:1036300072008DF871908DF870B00AF061FE0DF196
:1036400072039944CAEB0905222D04D9494840F672
:10365000910104F0FFF801230293CDF800A0019539
:103660003846214632460C230BF009F8B0F1000928
:1036700074DB002300930193012302933846214613
:1036800032460E230AF0FBFFB0F1000966DB03238C
:1036900027E0B8F10C0F36D1ACB1A56A9DB900F0A6
:1036A0006DFDA0620028BAD000F140034364A36A14
:1036B0001D64A36A586C0BF051FCA36AA3F84A502E
:1036C000A36AA3F848500022384621461346FFF764
:1036D0009BF9B0F1000803DA28480BF0A1FB15E0D4
:1036E0000823637704E0264803F07EF908E06CB114
:1036F000A36A5BB1B3F84A200132A3F84A2005E07F
:10370000DFF894902AE04FF0000927E0C14625E059
:10371000DFF888901B4812E0DFF88090FFF7A1BB2C
:103720001948214603F060F9A14617E00B2311E088
:10373000814673E4154802E0DFF82C9014484946AE
:1037400003F052F90AE004F1280029463246FEF758
:10375000CBFF052363774FF00008C9E7484637B031
:10376000BDE8F08FA8222100D8FDFFFF9CFEFFFFDF
:10377000C1222100AB1C2100E42221008E1F210068
:1037800002232100182321004C232100782321004B
:10379000A4232100B0FDFFFFF6FDFFFFCEFDFFFFDC
:1037A000F0B585B006460AF0DDFF0546D0B102232C
:1037B00029468DF80C3000240093152203AB3046C7
:1037C0008DF80D400AF01FFF0D236B77074D084B56
:1037D0002F6806F1280080212B600BF06DFB2F6015
:1037E000204601E04FF0FF3005B0F0BDB40F0020DF
:1037F0004000002070B54B7F05460D3B012B0C4669
:10380000164602D90431FFF7CBFF46B1686921465D
:103810000BF0B7FB06200449221D01F0F5FB204602
:10382000BDE8704000F05CBECF232100F8B50388EE
:10383000064613B341F23A22934203D00023038099
:103840000320F8BD882918D1264C04F118000BF08C
:103850004EFB40B3E06B0BF084FB054601F006FF26
:103860000746E5B16B6883420CD969681E48B942C6
:103870008CBFC91B01210BF01FFB41F23A2333809F
:103880000120F8BDE06B0BF076FB014620460AF004
:10389000EBFEE06B0BF065FB05460028E5D1124816
:1038A0004FF6FF71E7E704F128000BF020FB00283A
:1038B000E3D060690BF055FB04460028DDD0637F40
:1038C0000D2B0AD10E230948214663770AF0ACFE7E
:1038D000044821460122FFF78DFF20460BF08CFBA8
:1038E000EAE700BF28080020400800206408002004
:1038F00030B585B004460AF035FF054640B3437F36
:103900000C2B28D100F03AFCA86238B30023A0F8B1
:103910004A30AA6AA2F848302A7F72B9204629465E
:103920001346FFF771F8041E03DA10480BF078FA1B
:1039300001E008236B77204615E0012A11D100939E
:1039400001930293204629462A1D0AF098FE0AE0B8
:103950006FF0010007E06FF0020004E06FF0030079
:1039600001E04FF0FF3005B030BD00BF8E1F2100D9
:103970002DE9F04F91B005468946174605930AF0A8
:10398000F1FE0446C8B90620BD494A4601F03CFB99
:1039900013E0B8F1000F00F085823378012B40F07E
:1039A0008182237F012B00F0398106236377069BF8
:1039B000069A1F44059B9B1A0593059B0C2B33D934
:1039C0007B78FE2B30D1BB78FD2B2DD13B7B97F83C
:1039D0000BB0059A43EA0B2B0BF10D0393420693B0
:1039E00022D807F10D03002C00F0E580F9783A7930
:1039F000D4F820A042EA0121BAF1000F16D0BAF89B
:103A000004208A4212D11E46D846BAF1000F19D1BD
:103A10009C4802F0E9FF40F20152A38B934240F030
:103A20009C8099480BF0FCF90020A7E2D4F824A070
:103A3000BAF1000FE7D0BAF804208A4218BF4FF05D
:103A4000000AE0E7BAF80220002A00F0AF80BBF1DC
:103A50000F0F03D88D480BF0E3F9DCE700211022AB
:103A60000CA807930AF026FD227F079B012A0CBFB2
:103A70000AF130020AF13402106859680C90186893
:103A80004FF000080DAA03C210230CAACDF8008045
:103A900006207F4901F01CFB237F07F11506012B4F
:103AA0000CBF0AF110020AF12002ABF1080BCDF8AD
:103AB000008006207749102301F00AFBCDF8008032
:103AC0000620754932465B4601F002FB394608AADA
:103AD000134651F8030F496803C3BB7839888DF842
:103AE0002A30ABF108039BB2ADF828108DF82C30CA
:103AF000190A237F8DF82B10012B0CBF0AF110033C
:103B00000AF120030093102301930D2302920393E3
:103B10003046594632460CAB00F0AAFBB0F1000823
:103B200003DA5E480BF07CF913E0236A606A43B164
:103B300038B19A8883889A4203D300F05FFB002350
:103B4000636200230093062055493246434601F044
:103B5000BFFAB8F1000F29DA5DE740F20132934273
:103B600001D150485EE740F20142934201D14E48F4
:103B700058E740F20122934201D14C4852E7637F5B
:103B80000B2B00F28D81221D21462846484B0AF05E
:103B9000FBFD0E2305F13C00214663770AF044FD4E
:103BA000284621460122FFF725FE79E194F81CA062
:103BB00094F81DB004E0D8464FF0010B1E46DA46DB
:103BC0004FF0010CCDF800C006203A493A460D23CB
:103BD000CDF81CC001F07CFADDF81CC04346CDF8DE
:103BE00000C006203449324601F072FA3B78143B9B
:103BF000032B3FF6DCAEDFE813F004001A009E0052
:103C0000370124B105F13C0021460AF00DFD637F28
:103C1000A16A052B3FF4BDAE284818E0284622468D
:103C2000231DFEF779FD061EBFF6BFAE3BE14CB18A
:103C300005F13C0A504621460AF0F6FCB8F1010FA6
:103C400008DC40E1B8F1010F40F33D811C480BF066
:103C5000E7F8ACE63378022B01D07378A3BB05F10B
:103C6000280003F0DFFB686921460BF08AF9042085
:103C70001449221801F0C8F94FF0010826E000BFEE
:103C8000DC232100E62321004F2421000924210008
:103C9000222421006C282100282421003324210023
:103CA0004524210069242100842421009F2421002F
:103CB000CDFDFFFFBA242100C9242100DD2421000D
:103CC00008252100CF2321004FF000086B6C4BB179
:103CD000D3F808C0BCF1000F04D02846211D32786B
:103CE0007378E04772789AB9637F0D2B0ED00D235D
:103CF000637702238DF830308DF831200093284609
:103D0000214615220CAB0AF07EFC01E00E236377FE
:103D1000B8F1000F3FF44BAE504621460AF084FC48
:103D2000284621460022FFF765FD0120431CA8BF5D
:103D30004FF0FF3022E104B3236AFA7899883B7987
:103D4000BAF1010F43EA022204D1BBF1060F04BF0E
:103D5000013189B2914218D08A4802F045FE8A4862
:103D60000BF05EF805F13C0021460AF05DFC2846A8
:103D700021460122FFF73EFD19E6B8F10B0F0ADCE0
:103D800082480BF04DF8824E3EE0B8F10B0FF7DDA4
:103D9000A06A002842D13378012B08D024B97D488D
:103DA0000BF03EF87C4E2FE0012B12D800E014B14E
:103DB000637F0C2B0DD00196CDF800B0CDF80880B4
:103DC000284621464A465346FEF7ACFF061E30DA27
:103DD0001AE0724804E006D9B8F1FA0F75D97048B4
:103DE0000BF01EF825E040F0C380CDF800B001963E
:103DF000CDF80880284621464A465346FEF792FFF2
:103E0000002880F29280064666480BF009F82846A2
:103E100021464A4633460AF0B7FC52E032797379BC
:103E2000B0F84A1043EA02228A42D4D25E4802F035
:103E3000DBFD002C3FF4BBAD637F0C2B7FF4B7ADF3
:103E400005F13C0021460AF0EFFB6B6C002B3FF4C0
:103E5000AEAD9E68002E3FF4AAAD2846211D00227B
:103E60004FF4EF73B047A2E52CB950480AF0D8FFE1
:103E70004FF0FF3082E005F13C0021460AF0D4FB10
:103E80006B6C002B3FF493ADD3F804C0BCF1000F72
:103E90003FF48DAD2846211D32464346E04786E576
:103EA00043486BE03A4E43480AF0BAFF21464A467F
:103EB000284633460AF068FC284621460122FFF7CF
:103EC00099FC30465AE0324830E7406C0AF0A8FDD1
:103ED00070B1027F437F317943EA0223727942EA6B
:103EE00001229A4201D134487AE70AF09DFDEFE7BA
:103EF000404600F0B9FA824608B9304870E7C4601D
:103F0000C0F814803146183042460AF0F9F9A36A25
:103F10005146586C00F07CFA00288AD128480AF0F3
:103F20007FFF504600F0B6FA83E7A36A002B80D0EB
:103F3000586C0AF075FD064600283FF47AAFA26A75
:103F4000307F737FB2F84A1043EA002399420BD1C5
:103F5000506C31460AF06CFD637F009306F1180344
:103F600001937369029345E730460AF05DFDE2E78D
:103F7000144840F6CF7103F06DFC5AE711B0BDE86C
:103F8000F08F00BF542521007725210085252100D1
:103F9000CEFDFFFFA1252100D8FDFFFFD125210087
:103FA00035262100D2262100F5252100F826210002
:103FB000CDFDFFFF19272100602621009526210055
:103FC000AF262100AB1C2100F7B505461C4C01A80B
:103FD0000AF033FD4FF4A272002120460AF06AFA7B
:103FE000184E04F138002564E063174D0AF0B6FF5F
:103FF000002304F11000236160610AF0AFFF304636
:10400000214603F031FB2F6804F118004FF6FF71D1
:104010002E600AF051FF20460C212F600AF0CAFAE8
:10402000054618B1019B2046E36006E007480AF008
:10403000F7FE20460AF0DDFB284603B0F0BD00BFC6
:104040002808002040000020B40F0020472721004E
:1040500070B506460C4639B9214841F2851103F086
:10406000F9FB4FF0FF3070BD0D1D29460AF07AFBB9
:10407000844205D130462946BDE87040FFF738BC80
:1040800000252577706921460AF08FFF00F076F849
:10409000A06228B9134802F0A7FC6FF0010070BDC0
:1040A000A0F84A50A36AA3F84850A36A03F140025B
:1040B0005A64A36A1D64A36A586C0AF04FFF2A462B
:1040C0002B4630462146FEF79FFC051E03DA0648C4
:1040D0000AF0A6FE01E008236377284670BD00BF02
:1040E000AB1C2100622721008E1F2100F8B5074676
:1040F0000C460AF037FB064650B9204600F004FA99
:10410000064628B914480AF08BFE4FF0FF30F8BD80
:1041100038463146FFF79CFF051E09DD7B6CBBB1BD
:104120009C68ACB13846311D00224FF4EE7309E0B3
:104130000AD1786C78B1846864B138462A4640F276
:10414000DF13311DA04703E00448294602F04CFC70
:104150002846F8BD2046F8BD812721009827210078
:1041600008B504480AF04BFFBDE8084002480AF0D1
:1041700046BF00BF5C0000205000002010B5094879
:104180000AF04DFF044618B907480AF049FE07E057
:104190000021E0220AF08EF904F1500000F094FDB5
:1041A000204610BD5C000020E527210010B5044624
:1041B00040B1406C00F076F92146BDE8104002485D
:1041C0000AF041BF10BD00BF5C00002010B50948D7
:1041D0000AF025FF044618B907480AF021FE06E058
:1041E000002138220AF066F90023638023702046FC
:1041F00010BD00BF5000002009282100014610B169
:1042000001480AF020BF7047500000202DE9F04718
:104210001446099A06460D4613480899D200984656
:10422000DDF828A0DDF82C900AF00DFC071E14DB49
:10423000A64204D0204631462A460AF0D7F8089410
:104240000995CDF828A0CDF82C904346BDE8F0475D
:104250000548082103220AF04DBC04480AF0E0FD9D
:104260003846BDE8F08700BF6C09002058282100BF
:104270002DE9F0471446099A06460D461348089959
:10428000D2009846DDF828A0DDF82C900AF0DBFB80
:10429000071E14DBA64204D0204631462A460AF007
:1042A000A5F808940995CDF828A0CDF82C904346A0
:1042B000BDE8F0470548082103220AF0ABBC0448DA
:1042C0000AF0AEFD3846BDE8F08700BF6C0900205B
:1042D0005828210070B50E461546044618B9064800
:1042E0004E2103F0B7FA04F1400031462A46BDE8FA
:1042F000704000F0D3BD00BF70282100F8B50F4614
:104300001546044618B91D48612103F0A3FA20465A
:104310000021A8220AF0CEF8402D0ED904F1400663
:10432000304600F0D1FC304639462A4600F0B6FD52
:104330002046314600F006FE04E0204639462A4673
:1043400009F0DEFF651E2B4604F13F0613F8012F2E
:1043500082F03602B3421A70F8D104F1400000F046
:10436000B3FC204621464022FFF7B4FF15F8013F79
:1043700083F06A03B5422B70F8D1F8BD7028210094
:1043800070B5064605480D460AF049FE044618B1C8
:1043900031462A46FFF7B2FF204670BD6800002074
:1043A000014610B101480AF04EBE70476800002077
:1043B00070B50E4688B0054618B91148832103F040
:1043C00049FA1EB90E48842103F044FA05F140046D
:1043D0002146684600F0B6FD204600F075FC2046F8
:1043E0002946402200F05AFD20466946202200F06E
:1043F00055FD3046214600F0A5FD202008B070BDD7
:104400007028210001480AF0FABD00BF74000020A6
:1044100070B50D46064618B91248402103F01AFA45
:104420001DB91048412103F015FA30460AF099FDF4
:10443000044680B142686B689A4206D80AF0DCFDF7
:1044400018B120460AF0D8FDF2E7304621462A4648
:104450000AF0CAFD03E0304629460AF0B5FD012006
:1044600070BD00BF9128210010B508480AF0D7FDA3
:10447000044618B906480AF0D3FC04E000214FF4C2
:104480008A720AF017F8204610BD00BF74000020A1
:10449000B2282100014610B101480AF0D4BD70478E
:1044A0007400002010B5044600B910BD20460AF083
:1044B00062FD014618B102480AF0C5FDF6E710BDDD
:1044C0007400002008B501F0D1F8014B186008BD58
:1044D000442D002001480AF092BD00BF800000205A
:1044E00010B50446806AFFF761FE206AFFF786FE7A
:1044F000606AFFF783FE2146BDE8104001480AF0DC
:10450000A2BD00BF8000002070B5054611480AF02A
:1045100086FD0446E0B100212C2209F0CBFF2B469A
:10452000221D05F1180153F8040B8B4242F8040BCD
:10453000F9D1FFF74BFE0646206220B92046FFF76F
:10454000CFFF344604E0062003492A4600F05CFD14
:10455000204670BD80000020C828210038B50C46D8
:10456000054618B90F48512103F074F91CB90D48DC
:10457000512103F06FF92A7823789A420FD16A8A81
:10458000638A9A420BD1A81CA11C102209F086FE56
:1045900028B960696B691B1A5842584138BD002020
:1045A00038BD00BFD628210070B54B780C781B04AD
:1045B00043EA0463CC78802A83EA04038C7843EAD4
:1045C000042303604B790C794FEA034343EA046305
:1045D000CC7983EA04038C7943EA042343604B7A61
:1045E0000C7A4FEA034343EA0463CC7A83EA040378
:1045F0008C7A43EA042383604B7B0C7B4FEA0343B2
:1046000043EA0463CC7B83EA04038C7B43EA042300
:10461000C36034D100238349C26851F82340016844
:10462000814D6140D4B255F82440013304F47F44F5
:104630006140140E15F824400A2B81EA0401C2F3EC
:10464000074455F8244004F07F4484EA0104C2F38F
:10465000072155F8211001F47F0181EA0401446823
:10466000016181EA04018468416181EA040182EA0E
:1046700001028161C26100F0CD801030CBE74B7C3C
:104680000C7C1B0443EA0463CC7CC02A83EA040349
:104690008C7C43EA042303614B7D0C7D4FEA03438A
:1046A00043EA0463CC7D83EA04038C7D43EA04235C
:1046B000436139D100245B4A436952F824100268EF
:1046C000594D4A40D9B255F82110013401F47F41C7
:1046D0004A40190E15F82110082C82EA0102C3F392
:1046E000074155F8211001F07F4181EA0201C3F32F
:1046F000072255F8222002F47F0282EA0102416873
:10470000826182EA01028168C26182EA0102C168B3
:10471000026282EA010242627ED0016918304A4098
:10472000534002614361C6E74B7E0C7E1B0443EAA3
:104730000463CC7EB2F5807F83EA04038C7E43EA77
:10474000042383614B7F0C7F4FEA034343EA0463F6
:10475000CC7F897F83EA040343EA0123C3615DD1EF
:104760000026304BC46953F8262003682E49534075
:10477000E2B251F82220013602F47F425340220E69
:1047800011F82220072E83EA0203C4F3074251F8EE
:10479000222002F07F4283EA0203C4F3072251F889
:1047A000222002F47F0283EA02034268036283EA62
:1047B00002038268436283EA0203C268836283EA77
:1047C0000203C3622CD01A0E51F82250DAB211F84B
:1047D000222005F07F455540026920305540C3F343
:1047E000074251F8222002F47F025540C3F307220A
:1047F00051F8222002F47F4285EA020350F80C2C83
:104800000361534050F8082C436153408361634077
:10481000C361A6E7184670BD0C2070BD002070BDB6
:104820000E2070BD8C052100B41521002DE9F04F3C
:10483000D578046885B06C4049101578039101461D
:1048400084EA0564557892F807A084EA05449578CF
:1048500092F80B8084EA052400944468D57B8AEAA8
:10486000040492F804A084EA0A6492F805A084EA99
:104870000A4492F806A084EA0A2A846888EA0404B2
:1048800092F8088084EA086492F8098084EA08446F
:1048900092F80A8084EA0828C4686C40157B84EA90
:1048A0000564557B927B84EA054484EA0222039CDA
:1048B00001920294009CB14EB14F9DF80450240E19
:1048C00056F8255057F82440C8F3072C85EA040E03
:1048D0000C69AC4D8EEA0404CAF3074E55F82EB0AD
:1048E0004A6984EA0B0EA84C5FFA8AF954F82CB096
:1048F0009DF800C08EEA0B0B4FEA1A6E56F82CC0DA
:1049000057F82EE056F829908CEA0E0EC8F3074CA3
:104910008EEA020E55F82CC0019A8EEA0C0EC2F3F4
:10492000072C54F82CC08A698EEA0C0E4FEA186CDA
:1049300057F82CC05FFA88F889EA0C0C8CEA020C54
:10494000019A56F82880C2F3074955F82990009A31
:104950008CEA090CC2F30729019A54F82990120E27
:1049600057F822208CEA090C88EA0209CA69CAF3BE
:10497000072A89EA02020192009AC2F3074855F811
:104980002890019A4FEA1B6882EA090954F82A2004
:1049900089EA0209029A013A02925FFA89F25FD02B
:1049A00056F8222057F82880203188EA02080A6841
:1049B00088EA0202CEF3074855F8288082EA080206
:1049C000CCF3072854F8288082EA080200924FEAC4
:1049D0001E685FFA8BF256F8222057F828A0CCF315
:1049E00007488AEA020A4A688AEA020255F828A0B9
:1049F000C9F3072882EA0A0254F828A04FEA1C6883
:104A000082EA0A0A5FFA8EF256F8222057F82880C6
:104A10005FFA8CFC88EA02088A6856F82C6088EAFB
:104A20000202C9F3074855F828804FEA196982EA5B
:104A30000802CBF3072854F82880CBF3074B82EA0F
:104A4000080857F8292055F82B505640CA68CEF36D
:104A5000072E724054F82E406A406240019229E7C6
:104A60004A4D039915F822604F0155F82810C419D2
:104A700001F07F4181EA0602CEF30741C05955F8A3
:104A80002110424001F47F015140CCF3072255F838
:104A9000222002F47F424A40110E1970110C597005
:104AA000DA70110A4FEA1E62997055F822205FFAF7
:104AB0008BF115F8210002F07F4282EA0001626862
:104AC0004A40CCF3074155F8211001F47F015140D1
:104AD000C9F3072255F8222002F47F424A40110E02
:104AE0001971110C5971DA71110A4FEA1C6299712E
:104AF00055F822205FFA8EF115F8210002F07F426E
:104B000082EA0001A2685FFA8CFC4A40C9F30741BF
:104B100055F821104FEA196901F47F015140CBF398
:104B2000072255F82220CBF3074B02F47F424A407C
:104B3000110E1972110C5972DA72110A55F82920E6
:104B4000997215F82C1002F07F42E0684A4055F83F
:104B50002B104240CEF3072E01F47F01514055F84F
:104B60002E2002F47F424A40110E1973110C597322
:104B7000110A9973DA7305B0BDE8F08FB411210002
:104B8000B4052100B4092100B40D2100B4152100A1
:104B90002DE9F0470D461446DDF824A08146C1F109
:104BA00010002A46002150441F46DDF820800A9E4E
:104BB00009F080FCEB0001229A40013A0E4B2240A2
:104BC0001A600AF10F0162B9484651461A6032462E
:104BD00009F045FF384631464246BDE8F04709F046
:104BE00049BFCAEB0100A842EED90878104301F88A
:104BF0000109120AE7E700BFC80E00202DE9F84FAF
:104C00001C4615460A9E8B4632461946814609F0D7
:104C100026FF20460021102209F04CFC002D4ED02A
:104C2000B5F57F4F03D32748752102F013FEAA463E
:104C30000E2DC5F3072328BF4FF00E0A23706570B1
:104C400059465246A01C09F05BFB20463146102213
:104C500009F010FFCAEB050548462146324609F027
:104C6000FEFE2F46C7EB0508D044102FD8440FD9BD
:104C7000002318F80310F25C4A40E2540133102B71
:104C8000F7D1484621463246103F09F0E8FEE9E7F1
:104C9000AFB120460021102209F00CFC41463A46F3
:104CA000204609F02DFB20463146102209F0E2FE95
:104CB000484621463246BDE8F84F09F0D0BEBDE86F
:104CC000F88F00BFFA28210070B50446B0B1024643
:104CD0000B4D05F120062B4603CBB342106051600B
:104CE0001D4602F10802F6D1402204F128000021FD
:104CF00009F0E0FB00220023C4E9082370BD00BFD7
:104D0000B41921002DE9F04F90E83000836887B096
:104D100001938369D0F80CA002694669D0F81C9011
:104D2000029300F1280E002351F823704FEAB21CC1
:104D300097FA87FB029F8CEAF22C27EA020806EA20
:104D400002078CEA726C88EA07076744DFF848C1FB
:104D50005F444EF823B05CF823B00133BB44019F9D
:104D6000D94487EA050C0CEA040C07EA050B8CEA27
:104D70000B0B4FEAB40C8CEA743C8CEAB4570BEB87
:104D8000070C102B0AEB09080CEB090BDDF804A04B
:104D9000DDF8089006D00296019516462546424653
:104DA0005C46C1E7591C049101F00F015EF82190A7
:104DB0004FEAF91181EAB941059103F10E0101F0C1
:104DC0000F015EF821104FEA714A8AEAF14C039113
:104DD00003F1090103F00F0A01F00F015EF82A70D8
:104DE0005EF821103944059F87EAD909039F494499
:104DF0008CEA97274FEAB81C39448CEAF82C26EA4B
:104E0000080902EA080789EA07078CEA786CBC44BB
:104E1000214F4EF82A1057F82370029BBC448C4453
:104E200063441F4685EA040C05EA04030CEA0B0CF4
:104E30008CEA030C4FEABB0383EA7B3383EABB5360
:104E40009C44019BBC443B441946049B0195402B68
:104E5000029606D01646254642465C468846E346FC
:104E6000A0E703686344036043685B44436083686E
:104E70001C44C36884601D440369C56019444369C8
:104E800001614344436183691A44C36982611E44DA
:104E9000C66107B0BDE8F08FD4192100F8B505460A
:104EA0000E461446002A49D000B121B9244840F2E8
:104EB000332102F0CFFC286AC0F3C500C8B1C0F1AD
:104EC0004007BC4200F12800284431462BD33A4623
:104ED00009F016FAD5E90823F900521843F1000346
:104EE000C5E90823284605F12801E41B3E44FFF7E5
:104EF00009FF2746E11B3F2F31440CD92846FFF715
:104F000001FFD5E9082312F5007243F10003C5E95A
:104F10000823403FEEE724F03F0114F03F04314402
:104F20000CD005F128002246E40009F0E9F9D5E9A2
:104F30000823121943F10003C5E90823F8BD00BF97
:104F40002329210070B506460C4621B92A4840F2B3
:104F50005F2102F07FFC36B92046BDE87040002199
:104F6000682209F0A7BA236A616AC3F3C50209BAC5
:104F70001BBA2162636204F128050AB3511CA3180D
:104F80008020382983F8280006D802F1290020441F
:104F90000021C2F1370210E0402907D002F12900B8
:104FA00020440021C2F13F0209F084FA204629463C
:104FB000FFF7A8FE28460021382209F07BFA07E017
:104FC00011462846382209F075FA802384F82830E3
:104FD000D4E908232946C4E918232046FFF792FEA6
:104FE000231F04F11C0153F8042F12BA8B421A60DC
:104FF00046F8042BF7D1AFE723292100014B1860B5
:10500000704700BF8C000020F0B599B006460D46F1
:105010006C462C4B03F1100E27461868596808336C
:1050200003C773453C46F7D11B7800203B701746F9
:105030005B238DF814300DF11503B97818AC04EB2F
:10504000111414F8604C01F00F011C7018AC2144CD
:1050500011F8601C02305970F978C0B204EB1114D9
:1050600014F8604C01F00F019C7018AC214411F849
:10507000601C102803F1040ED97003F1050404D05C
:105080003A21197102372346D7E75D238EF80030A5
:105090006B441B1B052B05AF11DD508A0AF055F838
:1050A00009490246204601F0AFFC2044874206D061
:1050B000032E04D8054829463A4601F095FC19B05C
:1050C000F0BD00BF862921007A2921007E29210018
:1050D0002DE9F0411D46234B04461B680F468342D1
:1050E0001646DDF818803BDB00F0C0FA062C05D828
:1050F0001D4B1E4853F8241001F076FCB8F1000F48
:1051000020D01B4839462A4601F06EFC0024AC42F0
:1051100013D0210703D11748214601F065FC315D0A
:105120001548013401F060FC6207F0D123070CBF81
:105130000A20202009F05CFEE9E70A20BDE8F041E2
:1051400009F056BE2A460D48394601F04DFC35445B
:10515000AE42F2D016F8011B094801F045FCF7E712
:10516000BDE8F0818C000020D41A2100972921008D
:105170009B292100692921006F292100AC292100E8
:10518000BD292100F0B585B000F04AFC00F004FD17
:1051900000F060FC00F044FA01F04CFB09F0B5FEB1
:1051A00000F0F2FC02F0BAFA102009F0D7FD02F08C
:1051B000CFF900F021FC002000F02CFB012000F0D2
:1051C00029FB0020564900F001FC564B01200093BA
:1051D00004210246032301F0A3FB02F029FB62B67F
:1051E000402009F0BBFD504809F01AFE4F4809F075
:1051F00017FE00F0B7F9002002F044FB01F00CFAB2
:105200004B48002102F030FA01F0E4FF09F0D0FD34
:1052100000F04CFD00F068FD07F0D0FB02A808216B
:1052200001F02EFB9DF80F309DF80E70414C43EAC3
:10523000072702AB03CB206061603F4801F0D4FB3D
:105240000025615D3D48013501F0CEFB072D394E4B
:10525000F7D13B4DF1793B4801F0C6FBEC6A4AF6C9
:10526000CD310220A04739460320A0471A21012052
:10527000A047082202A96B6B0B209847324801F027
:10528000B3FB324B186809F0CBFD314801F0ACFBA1
:10529000304B186809F0C4FD2F4801F0A5FB2F4BD7
:1052A000186809F0BDFD2E4801F09EFB2D4B1868D3
:1052B00009F0B6FD2C4801F097FB2C4809F0B0FD31
:1052C0002B4801F091FB1A212A4801F08DFB2A4A54
:1052D000336813607368536007F0ACFC2748002103
:1052E00002F0C2F92648002102F0BEF9254B012147
:1052F0009B688120984709F0DEFD234809F0D1FD25
:1053000000F080FB802009F029FD00F081FB02F015
:1053100037F910F0FF0FF8D101F024FAF5E700BFDC
:10532000ED772000A0860100E5292100F329210066
:10533000C4000020E2380020032A2100212A210095
:10534000D81B2100FE1F2100272A2100201C21003C
:105350002D2A2100741C2100352A21002C1C21003B
:105360003B2A2100541C2100412A21004A2A210005
:10537000512A2100EC2C2100542D00206401002032
:10538000E4000020F01A2100841C2100024A136866
:1053900043F0F0031360704700B40D40014B1860F8
:1053A000704700BFC0B30D4020B1012805D1044BA8
:1053B00018787047034B186870470020704700BF8B
:1053C0007825002020B00D4010B5094A0020137840
:1053D00001331370074B197802F01EF9BDE8104035
:1053E000054B06481968064A002301F029BF00BF93
:1053F00078250020DA380020F40E0020CC0E0020A2
:10540000C9532000812808B52AD0B0F5807F39D053
:10541000802839D102F094F81C4B1D4A187013688B
:10542000022023F00803136052F8203C032123F0EC
:10543000080342F8203C52F81C3C23F0080342F8D1
:105440001C3C52F8183C43F0080342F8183C042274
:1054500000F0B0FB0F480221032200F04DFB13E0E7
:105460000D4B0E481A6829B142F008021A60042355
:10547000036005E022F008021A600423C0F88030BF
:10548000084608BD064B1960012008BDDA38002027
:1054900020B40D40A554200010B40D4000E100E000
:1054A000F40E002008B50F4809F04AFDC0B10821EC
:1054B0000C4809F033FD0C4B196861B10B4B00220D
:1054C0001A700B4B0B481B681BB90B4A01F0B8FE56
:1054D00001E001F0F7FEBDE80840084802F078BAA4
:1054E00008BD00BFEC0E0020F40E0020782500203F
:1054F00020B00D40CC0E0020C9532000F01A21002E
:10550000034B00221A60012243F8402C704700BF71
:1055100080C00D40054B1A6842F020021A601A68DC
:1055200042F010021A60FFF7EBBF00BF00C40D404D
:10553000044B1868C0F30720030904BF1030C0B241
:10554000704700BF1C300D40054B1868C0F3C210F7
:1055500001289ABFC0F1020040034FF40040704799
:1055600014300D402DE9F04788B0FFF7E1FF174BED
:1055700048251C68AB68074698476B688046984783
:105580000646FFF7E1FF054600F09EFA824600F06E
:10559000A7FA814600F054FAB60AC4F34003AD0AF4
:1055A00004F0010402930690009601950394CDF84F
:1055B00010A0CDF814904146C7F3071207F00F036F
:1055C000034801F011FA08B0BDE8F0871C300D4027
:1055D0006C2A2100F8B500F081F80F4B0024D3E9C4
:1055E00000673A46B04238BF7A1C15460443C3E907
:1055F0000045DFF828E0DEE90001821B61EB0703CC
:1056000012196B41CEE9002301F004FF18B1BDE887
:10561000F84001F08FBEF8BD1808002020080020D7
:105620000D4B0E4AE0215A600D4A82F823100022E9
:1056300007219A6019600B490B6843F001030B6066
:10564000094B1A60042243F80C2C012243F8082C61
:105650000F22DA62704700BF10E000E047E8010067
:1056600000ED00E008200D400C000340034BD3E99F
:105670000023100A40EA0360704700BF18080020AA
:10568000034BD3E90023D00B40EA4340704700BFEF
:1056900020080020054B18601C3B1A6842F00102EC
:1056A0001A601A68D207FCD4704700BF2800034074
:1056B00010B5064C236823F001032360FFF78AFF2F
:1056C000236843F00103236010BD00BF10E000E039
:1056D000014B1868704700BFF80E0020074B084ABE
:1056E000196804331B681268120442EA0323054A4E
:1056F0000B43106843EA0060704700BF40500D4004
:1057000048500D404C500D4010B50446104B1B68DE
:10571000DB07FBD572B6FFF7E1FF231A062BD8BFD4
:10572000C41D0C4B220E1A60C4F3074243F8042C2C
:10573000C4F3072243F8082CE2B243F80C2C62B6FB
:10574000054B4FF400321C60044B1A6110BD00BFC2
:1057500050500D404C500D40F80E002000E100E08C
:1057600008B500F0E5FF074B00221A60064B4FF426
:105770000032C3F89021C3F89020BDE8084001F042
:10578000A9BF00BFF80E002000E100E0064B1B6837
:105790001B075FBF054B186880F00800C0F3C0000E
:1057A00048BF0020704700BF18C0004018D000401C
:1057B000164A38B52C2303FB00234FF6BF72DC6872
:1057C0000546236C62649BB213F050020DD0A369AE
:1057D000DB0609D40E4B53F825301BB12068C0B24C
:1057E0009847F4E72368F2E738BD13F4D06F0BD085
:1057F0004FF440732363FF236360E36AE262E36272
:10580000236B43F00103236338BD00BF001B21005D
:10581000FC0E00202DE9F04F012885B0064600F26D
:10582000C3802C244443624B1D1995F920A005F137
:105830002007BAF1000F9946C0F2B68095F92230E0
:10584000002BC0F2B1805B4800F0E4FF5A4A59F8DF
:1058500004301168EC680B43136051686B6895F96C
:1058600021B00B4353609168AB6895F822800B43DD
:1058700093600023C4F8C83F2B690BEBCA021A607F
:1058800095F823305FFA88FC01939DF80430604658
:1058900019462A7DCDF80CC0029300F095F9029BC1
:1058A000DDF80CC019466046082200F083F94FFA73
:1058B00088F842494FEA08389DF9042058F8010059
:1058C000012303FA02F2024348F801204FEA0A3AA0
:1058D0005AF8010003FA0BF202434AF80120502261
:1058E000A263A26B95F8240042F4D062A263022264
:1058F00062634FF440722263AA696262EA69A2623B
:105900007022E26242B2002A0C4614DB95F925109F
:105910002B4D41EAC20129607979120315594FB222
:10592000BB402B431351002200F044F9254A136871
:1059300043F4004313602C2303FB069393F8265093
:1059400020336FB2002F1CDB93F807A0EDB25FFA93
:105950008AF82846414601223F0300F035F94FFA04
:105960008AFA3A59012303FA0AF313433B510822F6
:105970002846414600F01EF9124A136843F480435A
:1059800013602C2303FB0696F268136B43F00103AC
:10599000136396F828300122590903F01F0302FA15
:1059A00003F3094A42F8213005B0BDE8F08F00BF8B
:1059B000001B21008D57200028200D4020940D4011
:1059C00004410D4030D0004000E100E001289CBFC0
:1059D000014B43F820107047FC0E0020012808D826
:1059E000044B2C2202FB0030C3689A699206FCD457
:1059F00019607047001B2100014B00221A6070479C
:105A000000500D40014B08221A60704700500D40B5
:105A1000024BA0221A6050221A60704700500D40BD
:105A2000014B024A9A60704700ED00E00020200020
:105A3000024B1868C0F38150704700BF04200D402E
:105A400008B5FFF7F5FF024B53F8200008BD00BF73
:105A5000581B210038B5164D164C2B68032023F037
:105A600040032B602368062123F0400323600122BA
:105A700000F0A0F82B68012223F080032B6023683C
:105A8000032023F080032360072100F093F80A4AE3
:105A90000A4B1A600A4B0B4A19680A40002AF9D1CE
:105AA0001A685101FCD41A685201FCD538BD00BFF8
:105AB00020C40D4000C40D400101020000200D4033
:105AC00004200D4000000101034B04481B6803F053
:105AD00007031841704700BF04200D400048E8014B
:105AE000034B04481B68C3F302231841704700BFEF
:105AF00004200D400048E801024B02EBC10243F8CC
:105B000022007047040F0020F8B507460E46094DE5
:105B1000002405EB411547FA04F3DB07E1B204D595
:105B200055F824300BB1304698470134082CF2D197
:105B3000F8BD00BF040F00202DE9F04780464FEA72
:105B40000837DFF8409007F1804505F5592500F04A
:105B5000EFFDD5F8186457F809404FEAC80A24FA4F
:105B60000AF446EA0400E4B2C0B24146F6B204FACE
:105B70000AF4FFF7C9FFC5F81C6447F80940BDE8FF
:105B8000F08700BF18970D4002480021802208F0DE
:105B900091BC00BF040F0020034A044B1A60044B61
:105BA000803A1A60704700BF80400D40880F002087
:105BB000840F0020034B01EBC0011B6843F8212038
:105BC000704700BF880F0020034B01EBC0011B682A
:105BD00043F82120704700BF840F00200E2870B5C5
:105BE0000BD1164B164E1C6844F002051D6035683B
:105BF00025F03F0343F001033360124E336823F076
:105C0000FF031A431143014331600F4B1B681B060E
:105C1000FBD50E4B0E4A1B6812680E2803F0FC03DE
:105C200043EA022308BF064A9BB204BF1560034A39
:105C30009BB208BF146018B270BD00BF34000144AD
:105C4000F486084008700D4000700D400C700D4047
:105C500010700D40024B1868B0FA80F04009704790
:105C600000B7084010B5074B4FF40042064CC3F88C
:105C70009021C3F89020206818B101F00DFD002399
:105C8000236010BD00E100E08C0F0020064A13687D
:105C900043F002031360536843F0020353609368B8
:105CA00043F002039360704748200D4007B50C484D
:105CB00000F0B0FDFFF7EAFF0A4B1A6842F002025B
:105CC0001A6000220192019A0F2A02DC019A013225
:105CD000F8E71A6822F002021A6003B05DF804FBCC
:105CE000555C200054200D40064A136823F002033F
:105CF0001360536823F002035360936823F0020398
:105D00009360704748200D40084B93F90020002A0B
:105D100009DB074AED2111601160E32111601A7857
:105D200062F07F021A700120704700BF7C250020BE
:105D3000388808400B4B1A689207FBD41B685B0637
:105D40005FBF094BED221A601A60084B1B6813B144
:105D5000054BEF221A60064A0120137803F07F03F7
:105D6000137070474C860840388808402C860840DD
:105D70007C25002038B5A0F10B04E3B20F2B0546BB
:105D800013D80B4B1B6813F03F0302D0FFF7D2FF71
:105D9000012304EB8404074A0B3414600BB1FFF7B2
:105DA000B3FF054BE8B21D7000E0FF2040B238BDE4
:105DB000488608403C8608405702002010B50B4B2F
:105DC0001B68990603D1FFF79FFF012300E0002322
:105DD000074A1268D207FBD5064A1468C4F30014B8
:105DE0000BB1FFF7A7FF204610BD00BF4886084053
:105DF000648608404C860840044B186800F0220076
:105E0000A0F1200358425841704700BF4C8608401B
:105E1000024B186800F04000704700BF4C860840F5
:105E200038B50C46002900F08880102800F28780E1
:105E3000DFE800F0090F1A1C23394253586F7385AD
:105E400085787A7C7F003F4B1B68003318BF0123A5
:105E500070E03D4B05221B6803F07F030B3B93FB77
:105E6000F2F30B33DBB265E0384B00E0384B1A68D5
:105E7000043B1B6843EA02235CE000230B60354BC4
:105E8000354A1B6803F001030B601268900644BF9B
:105E900043F002030B60314B1B78002B4BD00B6897
:105EA00043F0040346E02E4B00201B780860002BD3
:105EB00041D001230B6038BD2A4B1A680023D2B2AF
:105EC000294901EBC3000079904202D851F83330E0
:105ED00030E001330E2BF3D128E0244B1B685BB27A
:105EE000493B27E0224B1B68990603D1FFF70CFFC3
:105EF000012300E000231F4A1268D207FBD51E4A87
:105F00001568493DEDB20BB1FFF714FF6DB2256086
:105F100011E01A4B93F900300CE0194B1B7803F099
:105F20007F0307E00B2305E01A2303E06FF017035C
:105F300000E007232360002038BD022038BD012087
:105F400038BD00BF2C8608403C860840CC85084000
:105F5000D485084000860840248608407B25002020
:105F60005602002040860840681B210058860840E1
:105F70004886084064860840608608407A250020EC
:105F80007925002038B505460C46134B1B689B0746
:105F9000FBD4124B93F90030002B01DBFFF7B4FE6A
:105FA0000F4BEE221A60691E1A60A21C43F8102CD7
:105FB0002144022000F04AFB013C0A49240121430C
:105FC000022000F055FB022000F05CFB022000F0F4
:105FD00071FB002038BD00BF4C8608407C250020A6
:105FE0003888084002C001C0F8B5214B93F9003051
:105FF000002B0DDBFFF772FB0446FFF785FEFFF772
:106000006DFB6FF009031B1BC342F8D4012600E0AF
:106010000026184B1B7823B9174D2B68990604D41A
:1060200005E0FFF7CBFE0028F6D10220F8BD134CA7
:10603000E923236004272B689A0707D4013F17F050
:10604000FF0703D00620FFF725FBF4E72B689B072B
:1060500004D4EE2323602360012403E02C6814F0B1
:106060000204FBD10EB1FFF765FE2046F8BD00BF6C
:106070007C250020560200204C86084038880840C5
:10608000044B1A6810B142F0010201E022F0010253
:106090001A607047008608400B280DD1082A0DD1E0
:1060A00061B1074B083111F8012D43F8042F054A5F
:1060B0009342F8D1002070470120704702207047BA
:1060C000A4850840C485084070B5304E336813F08D
:1060D000400308D02E4D2B68DCB21B0605D52D4B96
:1060E000ED221A601A60002070BD042CF7D9023C22
:1060F0008C42F4DCE4B2032C21D0011901390320D5
:1061000000F0ACFA631E24491B010320194300F080
:10611000AFFA032000F0B6FA032000F0CBFA032018
:1061200000F0D4FA0028FAD129681C4B4939C9B2C9
:1061300019702B681A4D18062B70D0D506E02B6805
:1061400003702B6843702B688370EDE749B289B206
:10615000042006F045FD2978032001F07F0106F0B8
:106160003FFD104B1B7873B933685A060BD5074BAC
:106170001B681B0603D50C4801F08EFA03E0054BA3
:10618000ED221A601A60204670BD00BF4C860840A0
:10619000288808403888084002C0010C7A25002071
:1061A000792500207B2500209C0000200B282DE96C
:1061B000F84F8A4611D1082A40F0828000297FD00A
:1061C000414B01F1FF3A53F8042D0AF8012F3F4AE1
:1061D0009342F8D10020BDE8F88F0C286DD1042A35
:1061E0006ED100296CD03A493A480B68DFF8EC9040
:1061F00023F007030B600368DFF8E4B043F0080303
:106200000360DBF80040D9F800200B68DFF8D4C049
:10621000DFF8D48023F070030B60D8F80050DCF86E
:106220000030E4B2120244EA036392B2DFF8BCE049
:106230001A43EBB242EA03430024DEF8002044EAAA
:1062400003060B68D5B223F0070343F001030B608C
:1062500003682F4643F008030360DBF80000D9F819
:1062600000200B68120223F0700343F010030B6050
:10627000D8F80050DCF80030C1B241EA036392B2B2
:106280001A43EBB242EA0343DEF8002044EA030873
:106290005FFA82F9FFF722FAB6EB080667EB090707
:1062A000F903054641EA5641F0030B4A002307F083
:1062B0001DFD281ACAF800008CE70120BDE8F88F00
:1062C0000220BDE8F88F00BFC8850840A8850840B7
:1062D00010880840048808400048E80118880840F1
:1062E0001488084020880840248808401C880840FA
:1062F000214B1870002834D0204B1B681B03FBD5A2
:106300001F4B1A6842F002021A601A6842F001023A
:106310001A601A681A495007FBD50A6822F0010270
:106320000A601968164A4907FBD4116841F0020156
:106330001160116841F0010111601A685207FCD523
:10634000104A136823F004031360D2F8A83123F035
:106350000403C2F8A8310C4B4FF40052C3F890204C
:106360007047084A136843F004031360064B4FF468
:1063700000521A61704700BF7B25002004200D40A9
:10638000048808408C86084000E100E010B50C4607
:1063900007285CD8DFE800F0040F1B1F263C42569C
:1063A000012903D1FFF7B0FC002010BD002950D116
:1063B000FFF7C0FCF8E7A1F10B030F2B49D8C8B2D7
:1063C000FFF7D8FC431C0CBF0320002010BD8CB28B
:1063D000E2B2214B02E08CB2204BE2B2240A1A60F6
:1063E0005C60E1E731F0070333D101F00100FFF712
:1063F00047FE1B4B14F0020F1A68C4F3800014BF51
:1064000042F0200222F020021A60FFF771FFCBE772
:1064100031F001001DD1134B197010BD01F11803AB
:106420001F2B16D80D231049DA0051F8330084428F
:1064300004DC8B181A790D4B1A60B5E713F1FF33A2
:10644000F1D2B1E7CCB20A4B49341C60ACE7012071
:1064500010BD022010BD00BFC8850840D08508408F
:106460002486084056020020681B21004086084010
:1064700058860840F8B5294F3D7815F001054BD1F5
:10648000274B01241C605C609C60A3F59323A3F55B
:106490001473F8221A600922C3F890211522703370
:1064A0001A6003F59B230B2203F59E731A60A3F574
:1064B0009B23A3F5F07340221A601A687F2642F0EE
:1064C00020021A60D52243F81C5CDE62DA61154BAB
:1064D0001878FFF74FFC144B4FF480421E60134BAB
:1064E00002201A6100F0DAF81149022000F0B6F833
:1064F000032000F0D3F80E49032000F0A7F80D4B5D
:106500001878FFF7F5FE0C48294601F0ADF83B7806
:10651000204623433B70F8BD0020F8BD7C250020B9
:10652000A8200D40570200209486084000E100E0BA
:10653000288808407B2500209C00002038B503886F
:106540000446CBB140F20342934203D000230380C0
:10655000032038BD194B18781A4628B11B7873B13F
:10656000174B1B7858060AD5822908D1137843B1F6
:10657000134B1A78520614D440F2034323800120AF
:1065800038BD06F0D3FA06F067FA8021FFF79CFDCC
:106590000028EDDD80B206F043FA0A4B1B699847EC
:1065A000E6E700221A70084B1D68FFF7C3FBFFF7F0
:1065B00061FFAB06E0D0FFF7A7FBDDE77B250020FE
:1065C0007C250020541C21004886084008B5054B56
:1065D0001B7813B9044801F05FF8044B00221A60DD
:1065E00008BD00BF7B2500209C00002034880840A7
:1065F000064B07481A68042A1FBF06490A7842F06A
:1066000040020A7000221A6001F046B82C88084047
:106610009C0000207C25002010B5094C402220461B
:10662000002107F047FF074B01221A605C60064B10
:106630004FF480425A604FF400425A6010BD00BFD0
:106640000000002004F00F4000E100E003289EBF9E
:10665000014B0001195070470000002003289EBF25
:10666000024B03EB00104160704700BF00000020A8
:1066700003289EBF024B03EB00108160704700BFF0
:106680000000002003289FBF034901230A688340BC
:106690009CBF13430B60704728F00F4003289FBF37
:1066A000034901230A6883409CBF13430B60704772
:1066B00020F00F4003289FBF034901230A6883404D
:1066C0009CBF13430B60704714F00F4003289FBF1B
:1066D000044B03EB0010806800F0070088BF002027
:1066E000704700BF00000020024B4FF0FF321A60DD
:1066F000704700BF04F50F40014B01221A6070473C
:106700004CF00F40094B1A6812F4801F1A46F9D159
:10671000043B196821F4803119601168C903FCD465
:106720001A6842F400321A60704700BF04200D401E
:1067300010B50A4B1A681C4612F0030F0CD0084B18
:106740001A685101FBD41A685201FCD5FEF7B0FF5C
:10675000FFF7D8FF0023236010BD00BF58200D4075
:1067600004200D4038B5254B1C6814F03F0413D1AC
:10677000234B53F8243023B1984768B10134052CDA
:10678000F6D1204D2B783BB1FEF7A2FF0446FEF771
:10679000A5FF201A092801D830BF38BD002CFBD036
:1067A000194B1A6822F400321A60184A1168C9029B
:1067B000FBD4196841F4803119601368DB03FCD500
:1067C000FEF78CFF201A092803D8BDE83840FFF7F0
:1067D00099BF63280E4C02D92B78022B00D00123DD
:1067E000236000F00FFF20B1FFF78CFF0023236030
:1067F00038BDFEF76DFF0028CED1F5E7488608408A
:10680000900F00207D25002000200D4004200D4029
:1068100058200D400023064A52F82310814206D02A
:1068200011B942F8230070470133052BF3D17047AB
:10683000900F0020054B00221A60054A136943F0AF
:1068400004031361034B01221A70704758200D4056
:1068500000ED00E07D25002010B5074B4FF480329D
:10686000064CC3F89021C3F89020206818B100F0BE
:1068700013FF0023236010BD00E100E0A40F0020FF
:1068800030B5184B1A78431E3AB9174A1278122AB3
:1068900003D1164A12784B2A03D001F52011273173
:1068A00017E04A0802F12814B4F1281F04D014F8A4
:1068B000015D03F8015FF7E701F52011273100239F
:1068C000934205DA11F801598418E5540133F7E7CA
:1068D00030BD074A914204D011F8012903F8012F75
:1068E000F7E730BD2B0028002A00280029002800E7
:1068F00027002800024A136843F010031360704712
:106900002000024014235843034B044A0344B3FBC2
:10691000F0F3013B13607047FF23F4000C000240CA
:106920002DE9F84307460E4615461C462A4ADFF86D
:10693000B4901368DDF8208043F001031360D9F8A8
:106940000030322043F00103C9F80030FEF7A2FE08
:10695000D9F80030214A23F00103C9F80030380388
:106960008158012303FA06FE21EA0E018150290312
:1069700051F802C0A3402CEA030C41F802C02032B7
:1069800050F802C04CEA0E0E40F802E0885803436B
:106990008B50384631460022FFF70CF92846214635
:1069A0000022FFF707F90E4B46EAC7021A6044EAD5
:1069B000C5025A60384631460B22FFF705F92846D2
:1069C00021460C22FFF700F9FFF794FF4046BDE88F
:1069D000F843FFF797BF00BF38200D4000940D40EB
:1069E0002C410D4044200D400FB407B504AA52F8C5
:1069F000041B0448019200F039F803B05DF804EB81
:106A000004B07047AC0000200EB43FB5094B07AA94
:106A100052F8041B0190049304A801AB0392059360
:106A200000F024F8019B00221A7006B05DF804EB18
:106A300003B070478DEE200070B505460C46102C53
:106A400007D92B68686808491022984750B9103C4C
:106A5000F5E734B12B6868682246BDE8704002490A
:106A60001847204670BD00BF752B21002DE9F04F5F
:106A700080468FB0069107920026069B1B78002B5C
:106A800000F05F83069B1C4613F8012B1AB9069B86
:106A90009C4203D10FE0252AF5D1F8E7069BD8F8F0
:106AA0000400E51A0699D8F800302A4698470028CD
:106AB00040F02A832E442378002B00F04283637831
:106AC000611C002B00F03D8300240A4611F8013BB5
:106AD0002B2B11D006D8202B11D0232B12D144F010
:106AE0000804F2E72D2B04D0302B0BD144F0100416
:106AF000EBE744F00104E8E744F00604E5E744F07E
:106B00000204E2E7A3F1310108290DD8134600255C
:106B10001A4613F8011BA1F13000092811D80A22E6
:106B200002FB0515303DF3E72A2B09D1079B013203
:106B30001D68191D002D0791B8BF44F0010400E045
:106B4000002513782E2B1CD15178531CA1F1300055
:106B500009280ED8194600270A780B46A2F1300002
:106B6000092801F101010FD80A2303FB0727303F51
:106B7000F2E72A2906D1931C079A111D079117687D
:106B800002E013464FF0FF371A786C2A09D15A7881
:106B90006C2A02D144F080040AE0013344F060041E
:106BA0000BE0682A09D15A78682A03D144F02004FE
:106BB000023302E0013344F040041A78642A3CD0E6
:106BC0001FD8462A48D00DD8252A5AD003D8002AE3
:106BD00000F0B78257E0412A4AD0452A53D144F405
:106BE000424450E0582A31D004D8472A4BD144F4CB
:106BF000A13448E0612A38D0632A44D144F4A06427
:106C000041E06E2A3AD007D8662A22D027D3672AD5
:106C100028D0692A11D036E0732A2CD006D86F2AE2
:106C200011D0702A2FD144F440742CE0752A07D07B
:106C3000782A28D144F4C85425E044F4245422E0AE
:106C400044F410641FE044F488541CE044F4B2445B
:106C500019E044F4007416E044F4844413E044F46E
:106C6000024410E044F481340DE044F4C1340AE0FD
:106C700044F4E13407E044F4806404E044F4E06464
:106C800001E044F4C0640133069304F4E063B3F517
:106C9000806F00F0AA8116D8B3F5807F2BD0B3F5B2
:106CA000407F7FF4EAAE079BA04914F4804F03F1C4
:106CB00004029F4818BF08460DF1330107920F46A2
:106CC0001A680023C5E1B3F5C06F08D0B3F5E06FD3
:106CD00000F03182B3F5A06F7FF4CFAE00E2D8F8B8
:106CE0000030D8F80400934901229847002840F06A
:106CF0000B820136C1E6002FACBF24F0100401273F
:106D000014F40053039304F0E00337D0402B17D062
:106D100008D8DBB1202B2AD1079B1A1D079293F9C3
:106D2000002017E0602B11D0802B20D1079B073368
:106D300023F0070303F108020792D3E900230AE0D6
:106D4000079B1A1D0792B3F9002003E0079B1A1D49
:106D500007921A68D317002A73F1000109DA524228
:106D600063EB4303CDE900234FF0010933E0002238
:106D70000023CDE900234FF000092CE0402B16D072
:106D800007D8CBB1202B20D1079B1A1D07921A7868
:106D9000EEE7602B10D0802B17D1079B073323F031
:106DA000070303F108020792D3E90023E1E7079BF9
:106DB0001A1D07921A88DBE7079B00211A1D07920C
:106DC0001B681846CDE90001D5E700220023CDE974
:106DD00000234FF0000904F4C053B3F5805F0CD0DA
:106DE000B3F5C05F33D0B3F5006F4FD1DDE90023B9
:106DF0000DF1360ACDE9042304E0DDE900230DF1AD
:106E0000360A15E0DDE9042313433AD0DDE9040135
:106E10000A22002306F06AFFDDE9040130320AF895
:106E2000012D00230A2206F061FFCDE90401E9E704
:106E300052EA030125D002F0070130310AF8011DA2
:106E4000D10841EA4371D8080A460346F0E7384BB7
:106E500014F4804F0DF1360A344908BF1946DDE9B4
:106E6000002352EA03000CD002F00F00085C4FEA46
:106E7000131E0AF8010D100940EA0370024673461A
:106E8000EFE70DF1360BCAEB0B0B03E00DF1360A01
:106E90004FF0000B41F6080241F208035F4502EA99
:106EA00004028CBFCBEB070700279A4202D1002FC8
:106EB00008BF012741F608018A4207EB0B030DD1F9
:106EC000DDE9000150EA010208D01B4914F4804FAB
:106ED0001A4A4FF0020C18BF0A4602E04FF0000CAD
:106EE00062460399A1B1B9F1000F0AD104F006017D
:106EF00002290AD00629124904BF4FF0010C0A46A4
:106F000006E04FF0010C0F4A02E00F4A4FF0010C6F
:106F100063449D428CBFED1A002514F0010922D173
:106F2000E30613D52F444D461DE000BF86292100FE
:106F300049292100732B2100652B2100622B2100A0
:106F40006A2B2100682B2100BB29210040462946DD
:106F5000CDF80CC00092FFF76FFD009ADDF80CC071
:106F6000002840F0D180BCF1000F0DD01146D8F8B8
:106F700000306246D8F80400CDF800C09847DDF82C
:106F800000C0002840F0C0803C465E44102CD8F879
:106F900000300DD9D8F804006C491022CDF800C09B
:106FA0009847002840F0B080103CDDF800C0EDE7C5
:106FB0005CB1D8F8040065492246CDF800C0984776
:106FC000DDF800C0002840F09F80D8F80030D8F8E5
:106FD000040051465A4666449847002840F0948081
:106FE0003E44B9F1000F79D073E0079BD3F800A0BD
:106FF0001A1D0792BAF1000F09D05346994699F825
:1070000000200133002AF9D1CAEB090903E0DFF8B7
:1070100040A14FF00609002F02DBB94528BFB94651
:107020004D458CBFC9EB0505002514F0010405D1C1
:1070300040462946FFF700FD002865D1D8F800300A
:10704000D8F8040051464A46984700285CD14E447F
:107050003EE052EA030E0ED002F00F0E10F80EE0E2
:107060004FEA131C01F801ED4FEA121E4EEA037EAF
:1070700072466346EDE70B467F1A01BF30220127B7
:1070800001F1FF3301F8012C03377822BD4203F8E8
:10709000012C4FF0300203F8022C88BFED1B4FF09B
:1070A000230298BF002514F00104A3F1030903F89B
:1070B000032C04D140462946FFF7BEFC20BBD8F87C
:1070C0000030D8F8040049463A469847E0B93E44B3
:1070D00024B140462946FFF7AFFCA8B92E44CCE4C2
:1070E000079B012D03F104021B688CBF05F1FF35DE
:1070F000002514F0010407928DF8203008D1404695
:107100002946FFF799FC10B14FF0FF301AE02E44EA
:10711000D8F80030D8F8040008A9012298470028C0
:10712000F2D16F1C2CB140462946FFF785FC0028A0
:10713000EAD13E44A1E4079B1A1D1B6807921E601A
:107140009BE430460FB0BDE8F08F00BF522B21000A
:107150006C2B2100F8B50388064615462BB14A2B47
:1071600015D0002303800320F8BD174807F0F9FE6F
:1071700004462CB1201DA16807F09EFE2468F8E7A4
:10718000124B01221A704A2333800120F8BD88294E
:10719000FBD10D4807F0E5FE0446002CF3D0231D7B
:1071A0009D420ED10848214607F0EBFE084B62696C
:1071B0001F681A60A2691D460AB1E06990472F60F6
:1071C000E1E72468E9E700BFA80F00207E25002042
:1071D000B40F002010B5064B002406481C7007F0C1
:1071E000BDFE2146BDE81040034800F03DBA00BF97
:1071F0007E250020A80F0020B400002070B50446B2
:10720000E3610B4B049D1B786561A26143B1094D9D
:10721000094B2E68201D2B6007F04EFE2E6000E00B
:10722000A1602146BDE87040044807F0BEBE00BF23
:107230007E250020B40F0020B4000020A80F0020FD
:1072400013B5034C24680094FFF7D8FF02B010BDBB
:10725000B40F002070B5094B05461B783BB1084CB4
:10726000084B26680430236007F02FFE266029466D
:10727000BDE87040044807F098BE00BF7E2500209E
:10728000B40F0020B4000020A80F002070B5094BF7
:1072900005461B783BB1084C084B26680430236038
:1072A00007F01CFE26602946BDE87040044807F040
:1072B0007CBE00BF7E250020B40F0020B40000205B
:1072C000A80F002010B5084B04461B781BB10430F2
:1072D00000F0A8F801E0C36003612146BDE810405A
:1072E000024807F04EBE00BF7E250020A80F0020F8
:1072F00010B50E4C236813B90D4A136010BDFEF78C
:10730000B5F9216891E80C001A44131A8A6842B151
:1073100092E812002144091A8B4228BF0B4692685A
:10732000F5E71844024B186010BD00BFAC0F0020F9
:10733000B00F0020014800F0AFB900BFC40000202A
:10734000F8B5038805462BB1592B09D000230380DB
:107350000320F8BD1E4A136059232B800120F8BD7D
:10736000872920D08229F7D1194F00263C68002CAC
:10737000F2D0204607F0E4FD90B1E0688821224673
:1073800000F04AF950B9E060A3680EB1B36000E0C4
:107390003B600023A360FFF7ABFFE5E7FFF7CAFF01
:1073A0002646A468E3E70A490B680BB90B60D3E7EC
:1073B000D868904201D19B68F7E70B609968002973
:1073C000CAD0C86890420ABF89680B469960F5E741
:1073D000AC0F002010B50446FFF7ACFFE3680B4A82
:1073E0004BB113683BB1A34203D1094A1268DA607A
:1073F00007E09B68F6E7064B1B68E36013681460C0
:10740000A360BDE81040FFF773BF00BFAC0F0020C2
:10741000B40F0020024B1868003018BF01207047DD
:10742000AC0F002010B50B4A04461368984206D1F1
:107430008368136008E09A68A24203D01346002BC9
:10744000F9D103E0A2689A60FFF752FF0023A3601E
:10745000E36010BDAC0F002038B5836804460D46CC
:107460009BB10A4804600220A07304F10C00984705
:107470000238012801D9832D05D120462146BDE8D7
:10748000384000F005B80123A37338BDB40F0020C5
:107490002DE9F8431C4A0446156889462B46904658
:1074A0001A4E3768A34204D00BB11B68FAE7BDE857
:1074B000F88334B3A37BABB10023A37345B1AC42D3
:1074C00004D028468721224607F019FD2D68F5E7EC
:1074D000A3683BB14C4505D0346004F10C00832116
:1074E0002A469847D8F800309C4203D12268064BC0
:1074F00005E0134623B11A68A242FAD122681A6045
:107500003760BDE8F88300BFB80F0020B40F00203B
:1075100010B5094B00221A70084B1C685CB1E37B64
:107520003BB101230022A373E27320468221FFF7BF
:1075300093FF2468F2E710BD81250020B80F0020DA
:10754000024B1878421C1A70704700BF8225002039
:10755000064B8A221A70064A00231370054A1370DC
:10756000054A1360054A1360704700BF822500205A
:107570007F25002080250020B80F0020B40F0020B8
:107580002DE9F0411A4D2B780BB1FFF7C1FF194CD3
:1075900022783AB3184E0C213378184F5943781893
:1075A00017F8018001334768806803F01F03013A30
:1075B0003370227068B9124B1E689EB12B780BB1E4
:1075C000FFF7A6FF304641463A4607F098FC36687A
:1075D000F3E7B8F1810F04BF0123837341463A46B4
:1075E00007F08DFC2B7820781844BDE8F08100BFAF
:1075F00081250020802500207F250020BC0F002051
:10760000B80F0020024A034B10781B7818447047CB
:107610008025002081250020F0B50B4E3378202BEB
:107620000FD00A4C0C252478094F1C4404F01F0489
:107630006C4301333D19A86039556A6033700020EE
:10764000F0BD0120F0BD00BF802500207F25002077
:10765000BC0F002038B5034C256807F050FC2560AE
:1076600038BD00BFB40F002010B50A4609490C68A8
:10767000234683420DD00BB11B68FAE748B1046082
:1076800008600121817383818121BDE81040FFF7EB
:10769000E1BF10BDB80F002038B1837B013B012B47
:1076A0009FBF024A0123C3731370704781250020D6
:1076B000024610B5064853600468029B116093604F
:1076C000026014B90846FEF71FF8002010BD00BF85
:1076D0003C11002010B5084C206858B100232360ED
:1076E000816843689847236823B1BDE81040186853
:1076F000FEF70AB810BD00BF3C11002010B50446CB
:10770000FDF7BEFF94E80C001344C01A024B9842E8
:107710008CBF0020012010BDFEFFFF7F08B5FDF7E4
:1077200035FE024B00221A7008BD00BF83250020E1
:10773000024A137818431070FDF730BE83250020ED
:10774000034A137823EA00001070FDF727BE00BF3C
:107750008325002038B505880446672D09D0792D8A
:107760002ED0002D32D1FFF7EBFE1B4B18701B4BB8
:107770001D601B4807F0B4FC431C01D167231DE0CA
:107780000A28164B07D01A687E2AF2DC511C1960B1
:10779000144B9854EDE7196800254A1C1A60114AE9
:1077A0000D4B555428461978FFF736FF0E4B8521AF
:1077B00018682A46FFF730FF20B97923238009E0B3
:1077C000852907D1054B00221A60D2E700230380E8
:1077D000032038BD012038BDDE38002048110020CC
:1077E0004011002005260020B40F00200D2810B500
:1077F000014615D00B4C23782BB90B4807F05CFCE5
:1078000048B9012306E00A2805D1074807F054FCCF
:1078100008B1002323700548FFF73EFF012010BD8B
:10782000002010BD0426002040110020D4000020BC
:1078300008B505480549802207F037FCBDE8084037
:1078400003480021FFF710BF4011002084250020CD
:10785000D400002003460A4601481946FFF7C4B881
:10786000AE2B2100054A136843F004031360044B58
:107870001B68906943EA002080B2704700700D4099
:1078800014700D40174A136823F00C031360164B55
:1078900001221A601A68012AFCD1144B08221A60CE
:1078A000E322C3F8142203F505731946104B1B6835
:1078B000DB07FBD5102000230E4A0138126802F0C6
:1078C000010243EA02034FEA43039BB2F4D1002BC7
:1078D000F0D0094A180A03F0FE0310601360EF238A
:1078E0000B60704700700D40A8200D4024860840B2
:1078F000648608409C86084014700D4070B5058869
:107900000446772D30D07E2D3FD0002D4DD1FFF78E
:1079100017FE294B1870294B1D601D462B68284AFD
:10792000264E52F823204AB126480021C1549368BC
:1079300080209847336801333360EFE7224A1370A1
:10794000772320E01F4AD256002A12DB1B4A136815
:1079500001331360194B1C4A1B6812789342F1DB08
:107960001A4B1B68002BEBD0184A00231360134AF4
:10797000EFE7114A00201178114A52F82320FFF74F
:107980004BFE30B97E23238013E00B4B1B788B42D8
:107990000FD10A4B0B491A688B5C03F07F038B54A1
:1079A0000A4A136801331360D0E7002303800320E1
:1079B00070BD012070BD00BFDF38002050110020D5
:1079C00090000020DB380020852600204C1100208C
:1079D000094B1A780023934204DA084951F823101E
:1079E000814207D106490748CA5C62F07F02CA5447
:1079F000FFF752BE0133EEE78526002090000020FD
:107A0000DB380020E40000200C4AB82303FB0022EE
:107A1000002330B553821A46094CE1188D782DB1F8
:107A20001C5D844202BF00248C70013240F24C5134
:107A300071338B42F0D1104630BD00BF7011002071
:107A40009126002008B5064802F0E4FF054B01220C
:107A50001A70FD2100225A709970DA7008BD00BFBB
:107A6000AD7C20008726002010B513780446087AE4
:107A700083F0020398421DD1487A5378984219D175
:107A8000887A9378984215D1C87AD378984211D1E0
:107A9000087B137998420DD1487B5379984209D1DC
:107AA000887B9379984205D1C87BD379984201D1DC
:107AB00003201BE00B890F4A6BB94B89B3F57F4F4D
:107AC00009D18B89FE2B06D11368C989022023F8BE
:107AD000021B13600AE0136851F8080F083343F8DB
